:100000000C9432000C942B030C9454030C947D0339
:100010000C945A060C9431060C94F4050C94A60525
:100020000C94CD050C947F050C946A040C94410447
:100030000C94AA030C944F000C944F000C942507C9
:100040000C944F000C944F000C944F000C944F00F4
:100050000C944F00E904F304FD04070511051B058A
:1000600025052F0511241FBECFE5D8E0DEBFCDBF8B
:1000700010E0A0E6B0E0E2E9FFE002C005900D92DA
:10008000AE3AB107D9F720E0AEEAB0E001C01D9268
:10009000A23DB207E1F70E9414020C94C7070C942A
:1000A00000001F93CF93DF93CDB7DEB72A970FB62B
:1000B000F894DEBF0FBECDBFCE0101960E940507AA
:1000C0008AE50E9403020E94BE0164E081E00E9472
:1000D000C80181E690E00E94DB0181E08093AF00DF
:1000E0000E940307182F6DEB70E088EE93E00E94EA
:1000F0001F041A30A0F48091AE00811110C06DEB86
:1001000070E084EF91E00E941F040E94BE0164E051
:1001100081E00E94C80181E790E00E94DB0189E054
:100120000E94B202813021F48093AE000E94B80098
:1001300066E770E0CE0101960E94BE07892B71F040
:100140000E94BE0164E081E00E94C8018CE790E05B
:100150000E94DB0161E088E00E942D022A960FB622
:10016000F894DEBF0FBECDBFDF91CF911F910895F0
:1001700060E08EE00E942D0208958EE00E94EA0267
:100180000895CF93C82F84FB662760F984E00E940E
:100190002D02C5FB662760F985E00E942D02C6FB93
:1001A000662760F986E00E942D026C2F661F662785
:1001B000661F87E00E942D0260E088E00E942D0209
:1001C00060E089E00E942D0261E08AE00E942D0239
:1001D0008FEC97E00197F1F700C0000060E08AE043
:1001E0000E942D026C2F617084E00E942D02C1FBE1
:1001F000662760F985E00E942D02C2FB662760F940
:1002000086E00E942D02C3FB662760F987E00E940A
:100210002D0260E088E00E942D0260E089E00E94EB
:100220002D0261E08AE00E942D028FEC97E0019799
:10023000F1F700C0000060E08AE00E942D028FE02C
:1002400097E20197F1F700C00000CF9108958FE386
:100250009CE90197F1F700C0000082E00E94C10014
:100260008FEC97E00197F1F700C0000088E20E9450
:10027000C1008FEC97E00197F1F700C000008CE01F
:100280000E94C1008FEC97E00197F1F700C00000D9
:1002900081E00E94C1008FE99FE00197F1F700C063
:1002A000000086E00E94C1008FEC97E00197F1F713
:1002B00000C0000080E80E94C1000895CF93C82FBD
:1002C00084FB662760F984E00E942D02C5FB662747
:1002D00060F985E00E942D02C6FB662760F986E082
:1002E0000E942D026C2F661F6627661F87E00E9402
:1002F0002D0261E088E00E942D0260E089E00E940A
:100300002D0261E08AE00E942D028FEC97E00197B8
:10031000F1F700C0000060E08AE00E942D026C2F1F
:10032000617084E00E942D02C1FB662760F985E0C0
:100330000E942D02C2FB662760F986E00E942D0212
:10034000C3FB662760F987E00E942D0261E088E028
:100350000E942D0260E089E00E942D0261E08AE0A7
:100360000E942D028FEC97E00197F1F700C000008A
:1003700060E08AE00E942D02CF91089581E00E9402
:10038000C1008FEC97E00197F1F700C000000895DD
:10039000882329F0813031F080E090E005C080E8CA
:1003A00090E002C080EC90E0603110F4860F911D67
:1003B0000E94C10008950F931F93CF938C01C0E05A
:1003C00009C00E945E018FEC97E00197F1F700C031
:1003D0000000CF5FF801EC0FF11D80818111F1CF9A
:1003E000CF911F910F91089520E042E062E083E0F9
:1003F0000E9491048FE19EE497BD86BD87EE93E055
:100400009BBD8ABD0895282F30E0A8EEB3E00E947E
:10041000A40724EB30E040E050E00E945D07295142
:100420003C4F3BBD2ABD089521E040E060E083E001
:100430000E9481060E94F4010E9400040E941B0693
:100440000E94270164E080E00E94C8018BE990E0EF
:100450000E94DB010E945100FDCF982F9695969542
:10046000969587706130E1F5913099F028F09230DF
:10047000E9F0933041F108954BB321E030E0B90148
:1004800002C0660F771F8A95E2F7CB01842B8BBBE6
:10049000089548B321E030E0B90102C0660F771F2C
:1004A0008A95E2F7CB01842B88BB089545B321E000
:1004B00030E0B90102C0660F771F8A95E2F7CB01E1
:1004C000842B85BB089542B321E030E0B90102C01E
:1004D000660F771F8A95E2F7CB01842B82BB0895C4
:1004E00061113FC09130A1F028F09230F9F09330C3
:1004F00059F108954BB321E030E0B90102C0660F15
:10050000771F8A95E2F7CB01809584238BBB0895F2
:1005100048B321E030E0B90102C0660F771F8A9529
:10052000E2F7CB018095842388BB089545B321E091
:1005300030E0B90102C0660F771F8A95E2F7CB0160
:100540008095842385BB089542B321E030E0B90152
:1005500002C0660F771F8A95E2F7CB01809584234E
:1005600082BB0895982F969596959695482F47703B
:10057000913081F028F09230B9F09330F9F028C032
:1005800099B3892F90E002C0959587954A95E2F737
:100590008170089526B330E0C90102C09595879512
:1005A0004A95E2F78170089523B330E0C90102C093
:1005B000959587954A95E2F78170089520B330E0CC
:1005C000C90102C0959587954A95E2F78170089513
:1005D00080E00895982F969596959695877091301E
:1005E00099F028F09230E9F0933041F108954BB33F
:1005F00021E030E0B90102C0660F771F8A95E2F76B
:10060000CB0184278BBB089548B321E030E0B901CA
:1006100002C0660F771F8A95E2F7CB01842788BB5B
:10062000089545B321E030E0B90102C0660F771F9D
:100630008A95E2F7CB01842785BB089542B321E078
:1006400030E0B90102C0660F771F8A95E2F7CB014F
:10065000842782BB08951F920F920FB60F92112428
:100660002F933F934F935F936F937F938F939F93BA
:10067000AF93BF93EF93FF93E091B400F091B50077
:10068000309709F00995FF91EF91BF91AF919F913C
:100690008F917F916F915F914F913F912F910F902B
:1006A0000FBE0F901F9018951F920F920FB60F92CA
:1006B00011242F933F934F935F936F937F938F9367
:1006C0009F93AF93BF93EF93FF93E091B200F091AC
:1006D000B300309709F00995FF91EF91BF91AF9169
:1006E0009F918F917F916F915F914F913F912F914A
:1006F0000F900FBE0F901F9018951F920F920FB67C
:100700000F9211242F933F934F935F936F937F9397
:100710008F939F93AF93BF93EF93FF93E091B000BC
:10072000F091B100309709F00995FF91EF91BF91D9
:10073000AF919F918F917F916F915F914F913F9179
:100740002F910F900FBE0F901F9018952FB1FC01A5
:10075000208308951F920F920FB60F9211242F93AA
:100760003F934F935F936F937F938F939F93AF9339
:10077000BF93EF93FF938091D0009091D1000E949E
:10078000A603FF91EF91BF91AF919F918F917F91C0
:100790006F915F914F913F912F910F900FBE0F90EE
:1007A0001F9018958091B6009091B700A091B80065
:1007B000B091B9000196A11DB11D8093B600909330
:1007C000B700A093B800B093B9004091BA0050911F
:1007D000BB006091BC007091BD0084179507A6070F
:1007E000B70769F4E091BE00F091BF00099510923F
:1007F000B6001092B7001092B8001092B900089598
:1008000083B78F7B83BF83B7886083BF83B78E7FB7
:1008100083BF83B7826083BF83B78B7F83BF83B778
:100820008F7E83BF83B78F7D83BF089589B7826032
:1008300089BF08959093C1008093C000089570937C
:10084000BF006093BE00DC0120E432E44FE050E0E2
:100850000E94B30728EC30E040E050E00E947F07A0
:100860002093BA003093BB004093BC005093BD006E
:1008700088EC8CBF82ED93E00E941A040E9416045B
:1008800008951F920F920FB60F9211242F933F934A
:100890004F935F936F937F938F939F93AF93BF9388
:1008A000EF93FF93E091C200F091C300309709F0FD
:1008B0000995FF91EF91BF91AF919F918F917F919A
:1008C0006F915F914F913F912F910F900FBE0F90BD
:1008D0001F9018951F920F920FB60F9211242F930D
:1008E0003F934F935F936F937F938F939F93AF93B8
:1008F000BF93EF93FF93E091C000F091C100099581
:10090000FF91EF91BF91AF919F918F917F916F91E7
:100910005F914F913F912F910F900FBE0F901F90BD
:100920001895823029F128F4882341F0813099F01C
:1009300045C0833051F18430A9F140C08FB58E7F1E
:100940008FBD8FB58D7F8FBD8EB5877F8EBD8EB5E8
:100950008F7E8EBD33C08FB58E7F8FBD8FB58D7F5F
:100960008FBD8EB588608EBD8EB580618EBD26C070
:100970008FB58E7F8FBD8FB58D7F8FBD8EB5886013
:100980008EBD8EB58F7E8EBD19C08FB58E7F8FBD0B
:100990008FB582608FBD8EB588608EBD8EB580614B
:1009A0008EBD0CC08FB581608FBD8FB582608FBD4D
:1009B0008EB588608EBD8EB580618EBD862F90E02D
:1009C0008830910508F054C0FC01E65DFF4F0C949F
:1009D0009E078EB58E7F8EBD8EB58D7F8EBD8EB5FA
:1009E0008B7F8EBD45C08EB581608EBD8EB58D7FEF
:1009F0008EBD8EB58B7F8EBD3BC08EB58E7F8EBD7E
:100A00008EB582608EBD8EB58B7F8EBD31C08EB5AA
:100A100081608EBD8EB582608EBD8EB58B7F8EBDA2
:100A200027C08EB58E7F8EBD8EB58D7F8EBD8EB567
:100A300084608EBD1DC08FB581608FBD8FB58D7FE9
:100A40008FBD8FB584608FBD13C08EB58E7F8EBD78
:100A50008EB582608EBD8EB584608EBD09C08EB5A8
:100A600081608EBD8EB582608EBD8EB584608EBD78
:100A7000413069F028F0423089F04330B1F01BC0BA
:100A80008FB58F7B8FBD8FB58F778FBD14C08FB51E
:100A900080648FBD8FB58F778FBD0DC08FB58F7B75
:100AA0008FBD8FB580688FBD06C08FB580648FBD48
:100AB0008FB580688FBD213069F028F0223089F031
:100AC0002330B1F008958FB58F7E8FBD8FB58F7DA8
:100AD0008FBD08958FB580618FBD8FB58F7D8FBD20
:100AE00008958FB58F7E8FBD8FB580628FBD0895BD
:100AF0008FB580618FBD8FB580628FBD08951F92C5
:100B00000F920FB60F9211242F933F934F935F9341
:100B10006F937F938F939F93AF93BF93EF93FF93C5
:100B2000E091CA00F091CB000995FF91EF91BF9140
:100B3000AF919F918F917F916F915F914F913F9175
:100B40002F910F900FBE0F901F9018951F920F922C
:100B50000FB60F9211242F933F934F935F936F9390
:100B60007F938F939F93AF93BF93EF93FF93E09106
:100B7000C800F091C9000995FF91EF91BF91AF9125
:100B80009F918F917F916F915F914F913F912F91A5
:100B90000F900FBE0F901F9018951F920F920FB6D7
:100BA0000F9211242F933F934F935F936F937F93F3
:100BB0008F939F93AF93BF93EF93FF93E091C60002
:100BC000F091C7000995FF91EF91BF91AF919F916F
:100BD0008F917F916F915F914F913F912F910F90E6
:100BE0000FBE0F901F9018951F920F920FB60F9285
:100BF00011242F933F934F935F936F937F938F9322
:100C00009F93AF93BF93EF93FF93E091C400F09154
:100C1000C5000995FF91EF91BF91AF919F918F9181
:100C20007F916F915F914F913F912F910F900FBEE8
:100C30000F901F90189585B58F7B85BD85B5886011
:100C400085BD85B58E7F85BD85B5826085BD85B541
:100C50008B7F85BD85B58F7E85BD85B58F7D85BD37
:100C600008951F920F920FB60F9211242F933F9366
:100C70004F935F936F937F938F939F93AF93BF93A4
:100C8000EF93FF93E091CE00F091CF00309709F001
:100C90000995FF91EF91BF91AF919F918F917F91B6
:100CA0006F915F914F913F912F910F900FBE0F90D9
:100CB0001F9018951F920F920FB60F9211242F9329
:100CC0003F934F935F936F937F938F939F93AF93D4
:100CD000BF93EF93FF93E091CC00F091CD00099585
:100CE000FF91EF91BF91AF919F918F917F916F9104
:100CF0005F914F913F912F910F900FBE0F901F90DA
:100D000018958230F9F028F4882341F0813081F081
:100D100036C0833009F1843049F131C080B58D7F10
:100D200080BD80B58B7F80BD8AB18B7F8AB927C09B
:100D300080B5826080BD80B58B7F80BD8AB18B7F9E
:100D40008AB91DC080B58D7F80BD80B5846080BDAF
:100D50008AB18B7F8AB913C080B5826080BD80B5AF
:100D6000846080BD8AB18B7F8AB909C080B58260FA
:100D700080BD80B5846080BD8AB184608AB96623F5
:100D800019F0613029F007C080B5877F80BD03C0AE
:100D900080B5886080BD413059F018F0423079F05C
:100DA00014C080B58F7E80BD80B58F7D80BD0DC0A5
:100DB00080B58F7E80BD80B5806280BD06C080B565
:100DC000806180BD80B5806280BD222319F0213012
:100DD00041F00AC080B58F7B80BD8BB18D7F8BB910
:100DE00003C080B5806480BD83E389B98AB1806126
:100DF0008AB98AB188608AB908955F9BFECF8CB1A9
:100E000008958CB9089580E00895EF92FF920F93B2
:100E10001F93CF938C010E94FD06F8018083C0E0F0
:100E200008C0CF5F7801EC0EF11C0E94FD06F701AF
:100E30008083F801EC0FF11D80818D3091F7CF9107
:100E40001F910F91FF90EF9008951F920F920FB690
:100E50000F9211242F933F934F935F936F937F9340
:100E60008F939F93AF93BF93EF93FF938091600015
:100E7000E091D000F091D100E80FF11D808188232E
:100E800041F00E940107809160008F5F80936000B5
:100E900003C081E080936000FF91EF91BF91AF911B
:100EA0009F918F917F916F915F914F913F912F9182
:100EB0000F900FBE0F901F901895A1E21A2EAA1B3B
:100EC000BB1BFD010DC0AA1FBB1FEE1FFF1FA217FA
:100ED000B307E407F50720F0A21BB30BE40BF50BF7
:100EE000661F771F881F991F1A9469F76095709580
:100EF000809590959B01AC01BD01CF010895052E11
:100F000097FB1EF400940E94960757FD07D00E949D
:100F10005D0707FC03D04EF40C949607509540955E
:100F2000309521953F4F4F4F5F4F08959095809595
:100F3000709561957F4F8F4F9F4F0895EE0FFF1F64
:100F40000590F491E02D0994A29FB001B39FC001D8
:100F5000A39F700D811D1124911DB29F700D811DE5
:100F60001124911D08950E94A407A59F900DB49F80
:100F7000900DA49F800D911D11240895FB01DC01AB
:100F80008D91019080190110D9F3990B0895F8946F
:020F9000FFCF91
:100F920001456E74657220796F757220436172200B
:100FA2000053746F700057432C6F6E00576972655F
:100FB2006C657373204368617267696E6720697339
:100FC20020616374697661746564004D756C74693F
:0E0FD200204C6576656C204761726167650092
:00000001FF
