S00A000047422E7372656391
S11300000C942A000C944A000C9473000C949C00E9
S11300100C9406020C94DD010C94B6010C94680156
S11300200C948F010C9441010C941A010C94F1006E
S11300300C94C9000C9447000C9447000C942F02B4
S11300400C9447000C9447000C9447000C94470010
S11300500C94470011241FBECFE5D8E0DEBFCDBF0E
S113006010E0A0E6B0E0E2EDF4E002C005900D92ED
S1130070A236B107D9F720E0A2E6B0E001C01D9294
S1130080AA37B207E1F70E9449000C9467020C9466
S11300900000FFCF1F920F920FB60F9211242F93DF
S11300A03F934F935F936F937F938F939F93AF93FC
S11300B0BF93EF93FF93E0916600F0916700309750
S11300C009F00995FF91EF91BF91AF919F918F91A5
S11300D07F916F915F914F913F912F910F900FBE40
S11300E00F901F9018951F920F920FB60F92112424
S11300F02F933F934F935F936F937F938F939F932C
S1130100AF93BF93EF93FF93E0916400F091650088
S1130110309709F00995FF91EF91BF91AF919F91AD
S11301208F917F916F915F914F913F912F910F909C
S11301300FBE0F901F9018951F920F920FB60F923B
S113014011242F933F934F935F936F937F938F93D8
S11301509F93AF93BF93EF93FF93E0916200F0916D
S11301606300309709F00995FF91EF91BF91AF912A
S11301709F918F917F916F915F914F913F912F91BB
S11301800F900FBE0F901F9018952FB1FC01208384
S113019008951F920F920FB60F9211242F933F933D
S11301A04F935F936F937F938F939F93AF93BF937B
S11301B0EF93FF9380917800909179000E94C5009D
S11301C0FF91EF91BF91AF919F918F917F916F912B
S11301D05F914F913F912F910F900FBE0F901F9001
S11301E018951F920F920FB60F9211242F933F93DD
S11301F04F935F936F937F938F939F93AF93BF932B
S1130200EF93FF93E0916A00F0916B00309709F04F
S11302100995FF91EF91BF91AF919F918F917F913C
S11302206F915F914F913F912F910F900FBE0F905F
S11302301F9018951F920F920FB60F9211242F93AF
S11302403F934F935F936F937F938F939F93AF935A
S1130250BF93EF93FF93E0916800F09169000995D3
S1130260FF91EF91BF91AF919F918F917F916F918A
S11302705F914F913F912F910F900FBE0F901F9060
S113028018951F920F920FB60F9211242F933F933C
S11302904F935F936F937F938F939F93AF93BF938A
S11302A0EF93FF93E0917200F09173000995FF9131
S11302B0EF91BF91AF919F918F917F916F915F91DA
S11302C04F913F912F910F900FBE0F901F90189553
S11302D01F920F920FB60F9211242F933F934F93B7
S11302E05F936F937F938F939F93AF93BF93EF939A
S11302F0FF93E0917000F09171000995FF91EF91E7
S1130300BF91AF919F918F917F916F915F914F9129
S11303103F912F910F900FBE0F901F9018951F9231
S11303200F920FB60F9211242F933F934F935F9325
S11303306F937F938F939F93AF93BF93EF93FF93A9
S1130340E0916E00F0916F000995FF91EF91BF91DC
S1130350AF919F918F917F916F915F914F913F9159
S11303602F910F900FBE0F901F9018951F920F9210
S11303700FB60F9211242F933F934F935F936F9374
S11303807F938F939F93AF93BF93EF93FF93E091EA
S11303906C00F0916D000995FF91EF91BF91AF91C1
S11303A09F918F917F916F915F914F913F912F9189
S11303B00F900FBE0F901F9018951F920F920FB6BB
S11303C00F9211242F933F934F935F936F937F93D7
S11303D08F939F93AF93BF93EF93FF93E091760036
S11303E0F0917700309709F00995FF91EF91BF9153
S11303F0AF919F918F917F916F915F914F913F91B9
S11304002F910F900FBE0F901F9018951F920F926F
S11304100FB60F9211242F933F934F935F936F93D3
S11304207F938F939F93AF93BF93EF93FF93E09149
S11304307400F09175000995FF91EF91BF91AF9110
S11304409F918F917F916F915F914F913F912F91E8
S11304500F900FBE0F901F9018958CB908951F929E
S11304600F920FB60F9211242F933F934F935F93E4
S11304706F937F938F939F93AF93BF93EF93FF9368
S113048080916000E0917800F0917900E80FF11D0F
S11304908081882341F00E942D02809160008F5F4B
S11304A08093600003C081E080936000FF91EF912E
S11304B0BF91AF919F918F917F916F915F914F9178
S11304C03F912F910F900FBE0F901F901895F894A5
S10504D0FFCF58
S10504D2010023
S9030000FC
