S00A000047422E7372656391
S11300000C943A000C942E020C9457020C94800227
S11300100C9479050C9450050C9429050C94DB047C
S11300200C9402050C94B4040C949F030C94760372
S11300300C94AD020C9457000C9457000C941E06BB
S11300400C9457000C9457000C9457000C945700D0
S11300500C94570003030D03170321032B033503EB
S11300603F0349031E04280432043C04460450049C
S11300705A04640411241FBECFE5D8E0DEBFCDBF0F
S113008010E0A0E6B0E0ECEBFCE002C005900D92BD
S1130090A437B107D9F720E0A4E7B0E001C01D926E
S11300A0AC38B207E1F70E9491010C945C060C9401
S11300B00000CF93C82F84FB662760F984E00E9478
S11300C0A901C5FB662760F985E00E94A901C6FB6A
S11300D0662760F986E00E94A9016C2F661F6627D7
S11300E0661F87E00E94A90160E088E00E94A901E0
S11300F060E089E00E94A90161E08AE00E94A90110
S11301008FEC97E00197F1F700C0000060E08AE00F
S11301100E94A9016C2F617084E00E94A901C1FBB7
S1130120662760F985E00E94A901C2FB662760F991
S113013086E00E94A901C3FB662760F987E00E945C
S1130140A90160E088E00E94A90160E089E00E94C2
S1130150A90161E08AE00E94A9018FEC97E0019770
S1130160F1F700C0000060E08AE00E94A9018FE07E
S113017097E20197F1F700C00000CF9108958FE353
S11301809CE90197F1F700C0000082E00E94590049
S11301908FEC97E00197F1F700C0000088E20E941D
S11301A059008FEC97E00197F1F700C000008CE054
S11301B00E9459008FEC97E00197F1F700C000000E
S11301C081E00E9459008FE99FE00197F1F700C098
S11301D0000086E00E9459008FEC97E00197F1F748
S11301E000C0000080E80E9459000895CF93C82FF2
S11301F084FB662760F984E00E94A901C5FB662799
S113020060F985E00E94A901C6FB662760F986E0D3
S11302100E94A9016C2F661F6627661F87E00E9453
S1130220A90161E088E00E94A90160E089E00E94E0
S1130230A90161E08AE00E94A9018FEC97E001978F
S1130240F1F700C0000060E08AE00E94A9016C2F71
S1130250617084E00E94A901C1FB662760F985E012
S11302600E94A901C2FB662760F986E00E94A901E9
S1130270C3FB662760F987E00E94A90161E088E07A
S11302800E94A90160E089E00E94A90161E08AE07E
S11302900E94A9018FEC97E00197F1F700C00000DC
S11302A060E08AE00E94A901CF910895882329F093
S11302B0813031F080E090E005C080E890E002C039
S11302C080EC90E0603110F4860F911D0E9459007B
S11302D008950F931F93CF938C01C0E009C00E942F
S11302E0F6008FEC97E00197F1F700C00000CF5FB4
S11302F0F801EC0FF11D80818111F1CFCF911F9195
S11303000F91089520E042E062E083E00E94C6037A
S11303108FE19EE497BD86BD87EE93E09BBD8ABDC9
S1130320089521E040E060E083E00E94A0050E947F
S1130330820140E062E082E00E94D5020E94BF0098
S113034064E080E00E94560181E690E00E94690129
S1130350FFCF982F96959695969587706130E1F525
S1130360913099F028F09230E9F0933041F10895FA
S11303704BB321E030E0B90102C0660F771F8A95C4
S1130380E2F7CB01842B8BBB089548B321E030E026
S1130390B90102C0660F771F8A95E2F7CB01842B5F
S11303A088BB089545B321E030E0B90102C0660F6F
S11303B0771F8A95E2F7CB01842B85BB089542B35E
S11303C021E030E0B90102C0660F771F8A95E2F799
S11303D0CB01842B82BB089561113FC09130A1F001
S11303E028F09230F9F0933059F108954BB321E09D
S11303F030E0B90102C0660F771F8A95E2F7CB019E
S1130400809584238BBB089548B321E030E0B90183
S113041002C0660F771F8A95E2F7CB01809584238B
S113042088BB089545B321E030E0B90102C0660FEE
S1130430771F8A95E2F7CB018095842385BB0895C5
S113044042B321E030E0B90102C0660F771F8A95FC
S1130450E2F7CB018095842382BB08951F920F920B
S11304600FB60F9211242F933F934F935F936F9383
S11304707F938F939F93AF93BF93EF93FF93E091F9
S11304807800F0917900309709F00995FF91EF9188
S1130490BF91AF919F918F917F916F915F914F9198
S11304A03F912F910F900FBE0F901F9018951F92A0
S11304B00F920FB60F9211242F933F934F935F9394
S11304C06F937F938F939F93AF93BF93EF93FF9318
S11304D0E0917600F0917700309709F00995FF914B
S11304E0EF91BF91AF919F918F917F916F915F91A8
S11304F04F913F912F910F900FBE0F901F90189521
S11305001F920F920FB60F9211242F933F934F9384
S11305105F936F937F938F939F93AF93BF93EF9367
S1130520FF93E0917400F0917500309709F00995FC
S1130530FF91EF91BF91AF919F918F917F916F91B7
S11305405F914F913F912F910F900FBE0F901F908D
S113055018952FB1FC01208308951F920F920FB6B6
S11305600F9211242F933F934F935F936F937F9335
S11305708F939F93AF93BF93EF93FF9380918A00E0
S113058090918B000E94A902FF91EF91BF91AF91CE
S11305909F918F917F916F915F914F913F912F9197
S11305A00F900FBE0F901F901895813069F028F0BE
S11305B0823089F08330B1F01BC083B78F7B83BF57
S11305C083B7877F83BF14C083B7806483BF83B737
S11305D0877F83BF0DC083B78F7B83BF83B788605A
S11305E083BF06C083B7806483BF83B7886083BF3B
S11305F0862F90E08830910508F054C0FC01E65D38
S1130600FF4F0C94560683B78E7F83BF83B78D7FCD
S113061083BF83B78B7F83BF45C083B7816083BFAC
S113062083B78D7F83BF83B78B7F83BF3BC083B783
S11306308E7F83BF83B7826083BF83B78B7F83BF83
S113064031C083B7816083BF83B7826083BF83B7C0
S11306508B7F83BF27C083B78E7F83BF83B78D7F94
S113066083BF83B7846083BF1DC083B7816083BFAA
S113067083B78D7F83BF83B7846083BF13C083B781
S11306808E7F83BF83B7826083BF83B7846083BF59
S113069009C083B7816083BF83B7826083BF83B798
S11306A0846083BF413069F028F04230C1F04330A8
S11306B079F0089583B78F7E83BF83B78F7D83BF1F
S11306C0089583B7806183BF83B78F7D83BF089507
S11306D083B78F7E83BF83B7806283BF089583B758
S11306E0806183BF83B7806283BF08951F920F9296
S11306F00FB60F9211242F933F934F935F936F93F1
S11307007F938F939F93AF93BF93EF93FF93E09166
S11307107C00F0917D00309709F00995FF91EF91ED
S1130720BF91AF919F918F917F916F915F914F9105
S11307303F912F910F900FBE0F901F9018951F920D
S11307400F920FB60F9211242F933F934F935F9301
S11307506F937F938F939F93AF93BF93EF93FF9385
S1130760E0917A00F0917B000995FF91EF91BF91A0
S1130770AF919F918F917F916F915F914F913F9135
S11307802F910F900FBE0F901F901895823029F172
S113079028F4882341F0813099F045C0833051F129
S11307A08430A9F140C08FB58E7F8FBD8FB58D7F0A
S11307B08FBD8EB5877F8EBD8EB58F7E8EBD33C0C7
S11307C08FB58E7F8FBD8FB58D7F8FBD8EB58860C1
S11307D08EBD8EB580618EBD26C08FB58E7F8FBDD8
S11307E08FB58D7F8FBD8EB588608EBD8EB58F7EA3
S11307F08EBD19C08FB58E7F8FBD8FB582608FBDC2
S11308008EB588608EBD8EB580618EBD0CC08FB5EF
S113081081608FBD8FB582608FBD8EB588608EBDBF
S11308208EB580618EBD862F90E08830910508F0EA
S113083054C0FC01EE5CFF4F0C9456068EB58E7FBF
S11308408EBD8EB58D7F8EBD8EB58B7F8EBD45C022
S11308508EB581608EBD8EB58D7F8EBD8EB58B7F3E
S11308608EBD3BC08EB58E7F8EBD8EB582608EBD33
S11308708EB58B7F8EBD31C08EB581608EBD8EB539
S113088082608EBD8EB58B7F8EBD27C08EB58E7F68
S11308908EBD8EB58D7F8EBD8EB584608EBD1DC020
S11308A08FB581608FBD8FB58D7F8FBD8FB584600F
S11308B08FBD13C08EB58E7F8EBD8EB582608EBD0A
S11308C08EB584608EBD09C08EB581608EBD8EB537
S11308D082608EBD8EB584608EBD413069F028F093
S11308E0423089F04330B1F01BC08FB58F7B8FBD90
S11308F08FB58F778FBD14C08FB580648FBD8FB5D2
S11309008F778FBD0DC08FB58F7B8FBD8FB58068FE
S11309108FBD06C08FB580648FBD8FB580688FBDD5
S1130920213069F028F0223089F02330B1F00895A5
S11309308FB58F7E8FBD8FB58F7D8FBD08958FB599
S113094080618FBD8FB58F7D8FBD08958FB58F7EEC
S11309508FBD8FB580628FBD08958FB580618FBDC7
S11309608FB580628FBD08951F920F920FB60F92BC
S113097011242F933F934F935F936F937F938F93A0
S11309809F93AF93BF93EF93FF93E0918400F09113
S113099085000995FF91EF91BF91AF919F918F9140
S11309A07F916F915F914F913F912F910F900FBE67
S11309B00F901F9018951F920F920FB60F9211244B
S11309C02F933F934F935F936F937F938F939F9353
S11309D0AF93BF93EF93FF93E0918200F091830074
S11309E00995FF91EF91BF91AF919F918F917F9165
S11309F06F915F914F913F912F910F900FBE0F9088
S1130A001F9018951F920F920FB60F9211242F93D7
S1130A103F934F935F936F937F938F939F93AF9382
S1130A20BF93EF93FF93E0918000F09181000995CB
S1130A30FF91EF91BF91AF919F918F917F916F91B2
S1130A405F914F913F912F910F900FBE0F901F9088
S1130A5018951F920F920FB60F9211242F933F9364
S1130A604F935F936F937F938F939F93AF93BF93B2
S1130A70EF93FF93E0917E00F0917F000995FF9141
S1130A80EF91BF91AF919F918F917F916F915F9102
S1130A904F913F912F910F900FBE0F901F9018957B
S1130AA01F920F920FB60F9211242F933F934F93DF
S1130AB05F936F937F938F939F93AF93BF93EF93C2
S1130AC0FF93E0918800F0918900309709F009952F
S1130AD0FF91EF91BF91AF919F918F917F916F9112
S1130AE05F914F913F912F910F900FBE0F901F90E8
S1130AF018951F920F920FB60F9211242F933F93C4
S1130B004F935F936F937F938F939F93AF93BF9311
S1130B10EF93FF93E0918600F09187000995FF9190
S1130B20EF91BF91AF919F918F917F916F915F9161
S1130B304F913F912F910F900FBE0F901F901895DA
S1130B408230F9F028F4882341F0813081F036C0F6
S1130B50833009F1843049F131C080B58D7F80BD87
S1130B6080B58B7F80BD8AB18B7F8AB927C080B561
S1130B70826080BD80B58B7F80BD8AB18B7F8AB94E
S1130B801DC080B58D7F80BD80B5846080BD8AB175
S1130B908B7F8AB913C080B5826080BD80B58460C4
S1130BA080BD8AB18B7F8AB909C080B5826080BD5F
S1130BB080B5846080BD8AB184608AB9662319F0E7
S1130BC0613029F007C080B5877F80BD03C080B540
S1130BD0886080BD413059F018F0423079F014C07B
S1130BE080B58F7E80BD80B58F7D80BD0DC080B502
S1130BF08F7E80BD80B5806280BD06C080B5806177
S1130C0080BD80B5806280BD222319F0213041F07F
S1130C100AC080B58F7B80BD8BB18D7F8BB903C03B
S1130C2080B5806480BD83E389B98AB180618AB963
S1130C308AB188608AB908958CB908951F920F9279
S1130C400FB60F9211242F933F934F935F936F939B
S1130C507F938F939F93AF93BF93EF93FF93809171
S1130C606000E0918A00F0918B00E80FF11D808113
S1130C70882341F00E941C06809160008F5F80935E
S1130C80600003C081E080936000FF91EF91BF9109
S1130C90AF919F918F917F916F915F914F913F9110
S1130CA02F910F900FBE0F901F901895EE0FFF1FFE
S10F0CB00590F491E02D0994F894FFCF16
S1130CBC014D756C7469204C6576656C20476172C6
S1070CCC61676500F3
S9030000FC
